:020000040800F2
:10000000000002205909000855090008E1670008AE
:1000100055090008550900085509000800000000AE
:10002000000000000000000000000000550900086A
:100030005509000800000000550900086567000820
:100040005509000855090008550900085509000818
:100050005509000855090008550900085509000808
:10006000550900085509000855090008995300086A
:10007000A5530008FD400008B1530008BD53000817
:1000800019620008C9480008550900085509000808
:1000900055090008550900085509000855090008C8
:1000A00055090008550900085509000855090008B8
:1000B000551A0108611A01086D1A0108FD48000867
:1000C000550900080949000855090008C51201082A
:1000D000D11201084D60000879600008AD60000889
:1000E00055090008550900080000000055090008DE
:1000F0005509000855090008550900085509000868
:100100005509000855090008791A0108DD1201088F
:10011000E16000081561000855090008550900084C
:100120005509000855090008011301083513010895
:100130004D620008550900085509000855090008D6
:1001400000000000000000000000000000000000AF
:1001500055090008550900085509000849610008BB
:1001600015490008550900087567000899670008D7
:1001700055090008BD670008550900085509000821
:1001800055090008550900087D610008B1610008A3
:10019000E9120108F512010855090008550900087F
:1001A00055090008550900085509000855090008B7
:1001B000B9500008550900085509000855090008FC
:1001C0005509000855090008550900085509000897
:1001D0005509000855090008550900085509000887
:1001E0005509000855090008550900085509000877
:1001F0005509000855090008550900085509000867
:100200005509000855090008550900085509000856
:100210005509000855090008550900085509000846
:10022000550900085509000855090008000000009C
:10023000550900085509000800000000550900088C
:100240005509000855090008550900085509000816
:100250005509000855090008550900085509000806
:1002600055090008550900085509000855090008F6
:100270005509000855090008E56100080000000064
:10028000550900085509000855090008000000003C
:08029000000000005509000800
:1002980010B5054C237833B9044B13B10448AFF3B8
:1002A80000800123237010BDF80300240000000023
:1002B800105B010808B5034B1BB103490348AFF3B2
:1002C800008008BD00000000FC030024105B01084A
:1002D80081F0004102E000BF83F0004330B54FEAEF
:1002E80041044FEA430594EA050F08BF90EA020F5C
:1002F8001FBF54EA000C55EA020C7FEA645C7FEAEF
:10030800655C00F0E2804FEA5454D4EB5555B8BF11
:100318006D420CDD2C4480EA020281EA030382EA82
:10032800000083EA010180EA020281EA0303362D14
:1003380088BF30BD11F0004F4FEA01314FF4801CE7
:100348004CEA113102D0404261EB410113F0004FF9
:100358004FEA03334CEA133302D0524263EB4303B0
:1003680094EA050F00F0A780A4F10104D5F1200E4E
:100378000DDB02FA0EFC22FA05F2801841F10001A9
:1003880003FA0EF2801843FA05F359410EE0A5F17D
:1003980020050EF1200E012A03FA0EFC28BF4CF0AE
:1003A800020C43FA05F3C01851EBE37101F0004564
:1003B80007D54FF0000EDCF1000C7EEB00006EEB71
:1003C8000101B1F5801F1BD3B1F5001F0CD34908FB
:1003D8005FEA30004FEA3C0C04F101044FEA445252
:1003E80012F5800F80F09A80BCF1004F08BF5FEAD9
:1003F800500C50F1000041EB045141EA050130BDB9
:100408005FEA4C0C404141EB0101013C28BFB1F5CA
:10041800801FE9D291F0000F04BF01460020B1FA15
:1004280081F308BF2033A3F10B03B3F120020CDAE8
:100438000C3208DD02F1140CC2F10C0201FA0CF0C6
:1004480021FA02F10CE002F11402D8BFC2F1200C2B
:1004580001FA02F120FA0CFCDCBF41EA0C019040E1
:10046800E41AA2BF01EB0451294330BD6FEA04042A
:100478001F3C1CDA0C340EDC04F11404C4F1200215
:1004880020FA04F001FA02F340EA030021FA04F327
:1004980045EA030130BDC4F10C04C4F1200220FA7E
:1004A80002F001FA04F340EA0300294630BD21FABC
:1004B80004F0294630BD94F0000F83F4801306BF82
:1004C80081F480110134013D4EE77FEA645C18BF76
:1004D8007FEA655C29D094EA050F08BF90EA020F0D
:1004E80005D054EA000C04BF1946104630BD91EA05
:1004F800030F1EBF0021002030BD5FEA545C05D108
:100508004000494128BF41F0004130BD14F5800446
:100518003CBF01F5801130BD01F0004545F0FE41BA
:1005280041F470014FF0000030BD7FEA645C1ABFEF
:10053800194610467FEA655C1CBF0B46024650EA26
:10054800013406BF52EA033591EA030F41F4002152
:1005580030BD00BF90F0000F04BF0021704730B5D8
:100568004FF4806404F132044FF000054FF00001AD
:1005780050E700BF90F0000F04BF0021704730B56E
:100588004FF4806404F1320410F0004548BF404243
:100598004FF000013EE700BF42004FEAE2014FEA98
:1005A80031014FEA02701FBF12F07F4393F07F4F73
:1005B80081F06051704732F07F4208BF704793F076
:1005C8007F4F04BF41F40021704730B54FF4607489
:1005D80001F0004521F000411CE700BF50EA01028C
:1005E80008BF704730B54FF000050AE050EA010235
:1005F80008BF704730B511F0004502D5404261EBA5
:1006080041014FF4806404F132045FEA915C3FF4E5
:10061800D8AE4FF003025FEADC0C18BF03325FEA82
:10062800DC0C18BF033202EBDC02C2F1200300FA33
:1006380003FC20FA02F001FA03FE40EA0E0021FA58
:1006480002F11444BDE600BF53B94AB9002908BFF6
:1006580000281CBF4FF0FF314FF0FF3000F074B995
:10066800ADF1080C6DE904CE00F006F8DDF804E001
:10067800DDE9022304B070472DE9F047089D0446E0
:100688008E46002B4DD18A42944669D9B2FA82F23D
:1006980052B101FA02F3C2F1200120FA01F10CFA79
:1006A80002FC41EA030E94404FEA1C48210CBEFBB1
:1006B800F8F61FFA8CF708FB16E341EA034306FB3A
:1006C80007F199420AD91CEB030306F1FF3080F0C9
:1006D8001F81994240F21C81023E63445B1AA4B216
:1006E800B3FBF8F008FB103344EA034400FB07F7B8
:1006F800A7420AD91CEB040400F1FF3380F00A81F9
:10070800A74240F207816444023840EA0640E41BED
:1007180000261DB1D4400023C5E900433146BDE899
:10072800F0878B4209D9002D00F0EF800026C5E93B
:10073800000130463146BDE8F087B3FA83F6002E53
:100748004AD18B4202D3824200F2F980841A61EBCB
:10075800030301209E46002DE0D0C5E9004EDDE7E9
:1007680002B9FFDEB2FA82F2002A40F09280A1EBD1
:100778000C014FEA1C471FFA8CFE0126200CB1FB26
:10078800F7F307FB131140EA01410EFB03F088421F
:1007980008D91CEB010103F1FF3802D2884200F2AC
:1007A800CB804346091AA4B2B1FBF7F007FB10113E
:1007B80044EA01440EFB00FEA64508D91CEB0404DC
:1007C80000F1FF3102D2A64500F2BB800846A4EB37
:1007D8000E0440EA03409CE7C6F12007B34022FA22
:1007E80007FC4CEA030C20FA07F401FA06F31C4351
:1007F800F9404FEA1C4900FA06F3B1FBF9F8200C5E
:100808001FFA8CFE09FB181140EA014108FB0EF0A3
:10081800884202FA06F20BD91CEB010108F1FF3AF3
:1008280080F08880884240F28580A8F102086144FF
:10083800091AA4B2B1FBF9F009FB101144EA01410D
:1008480000FB0EFE8E4508D91CEB010100F1FF34B8
:100858006CD28E456AD90238614440EA0840A0FB50
:100868000294A1EB0E01A142C846A64656D353D026
:100878005DB1B3EB080261EB0E0101FA07F722FA4A
:1008880006F3F1401F43C5E9007100263146BDE873
:10089800F087C2F12003D8400CFA02FC21FA03F3D6
:1008A800914001434FEA1C471FFA8CFEB3FBF7F057
:1008B80007FB10360B0C43EA064300FB0EF69E427C
:1008C80004FA02F408D91CEB030300F1FF382FD215
:1008D8009E422DD9023863449B1B89B2B3FBF7F6BD
:1008E80007FB163341EA034106FB0EF38B4208D996
:1008F8001CEB010106F1FF3816D28B4214D9023ED7
:100908006144C91A46EA004638E72E46284605E7F4
:100918000646E3E61846F8E64B45A9D2B9EB0208C5
:1009280064EB0C0E0138A3E74646EAE7204694E755
:100938004046D1E7D0467BE7023B614432E7304688
:1009480009E76444023842E7704700BFFEE700BF8A
:100958000B480C4A904203D0121A0B4914F0E0F9E4
:100968000A480B4A904203D0121A002114F0E6F903
:1009780006F08AF914F0B0F901F018FCFEE700BFA0
:1009880000000024F4030024405B0108F80300245D
:1009980010BC0124704700BF704700BF704700BFFC
:1009A800704700BF704700BF704700BF704700BF67
:1009B8000023C0E90333C0E90533C0E90733C0E9C0
:1009C8000933C0E90B33C0E90D337047000000005C
:1009D80038B52DED068BF7EE008A294CB2EE0C7A6D
:1009E800284DF0EE619AF0EE687AB0EE41AAE0EE9A
:1009F800877A27EE800AB1EE409A13F005FDB0EE33
:100A0800408AB0EE490A13F0FFFCB7EEC97AB0EE9F
:100A1800409A9FED196B27EE060B13F0CDFB20468D
:100A2800B7EEC07B9FED180A39EE089A79EEE87A9E
:100A380038EE478AF0EEE77AC8EE09AAA7EE800AF0
:100A480013F02CF9DFED117A9FED110A2846A9EE73
:100A5800A70A13F023F9F1EE007A2846EAEE278A6E
:100A680028EEAA0A13F024F82046BDEC068BBDE850
:100A7800384013F01DB800BF333333333333F33FFB
:100A8800F85E0024A05F00240000C84200606A46A7
:100A9800000048430000000038B59FED3D5B2DED98
:100AA800088BB7EEC17A3C4CF7EE009A3B4DF3EE5B
:100AB800046A27EE057BB0EE69BAB0EE40AAF0EE04
:100AC80061AAA0EEA6BAB7EEC78BB0EE609A78EE30
:100AD80069BA2BEE00BA38EE080A80EE2B0A13F03A
:100AE80093FCF2EE000AF0EECB7AF0EE408A29EEA3
:100AF800209A77EEA97A29EE0B9A89EE270A39EE21
:100B0800C00A20EE080A80EE2B0A13F07DFC88EE5E
:100B18002B9AF0EE007A38EEA98AA0EE678AB0EE3A
:100B2800490A13F0EBFDF0EE408AB0EE490A13F0E3
:100B380019FE3AEEE97AC8EE807ADFED196A2046A6
:100B4800B0EEC77AB6EE006AE7EE266AB0EE660A3D
:100B580077EEE97A28EE678AA8EE06AA13F09EF8DF
:100B6800DFED107A28469FED100AAAEEA70A13F0C7
:100B780095F82846B0EE4A0A12F09AFF2046BDECD6
:100B8800088BBDE8384012F093BF00BFAFF3008078
:100B9800CDCCCCCCCCCCEC3FF85E0024A05F0024BC
:100BA8000000C84200606A460000484370B503214F
:100BB8000446A1482DED028BB0EE408A03F03EFAC0
:100BC800B7EE007A9FED9D6ADFED9D6A9D4B77EE4B
:100BD800407A9D48F0EEE77AE7EE866AC3ED007A40
:100BE800B0EE660A13F05AF8072C19D8DFE804F0BB
:100BF8000D1D388F98A1AA04B0EE480A9348BDECA1
:100C0800028BBDE8704012F049BC914B1B78002B59
:100C180000F00381012B00F00481022B00F09B807F
:100C2800B0EE480ABDEC028B70BD894B1B78002BD7
:100C380000F0EF80012B00F0FA80022BF0D18549FB
:100C4800854A864BB0EE480AD1ED001A92ED001A9B
:100C5800D3ED000ABDEC028BBDE87040FFF71CBF66
:100C68007B4B1B78002B00F08780012B00F0DD8088
:100C7800022BD5D17A49D1ED017A91ED027A9FED17
:100C8800796A37EE677A0B68D1ED036A5D68E7EE3B
:100C9800067A754A754EBDEEE77AC1ED017A17EE10
:100CA800101AB8EEC77A914277EEC77A28BF114674
:100CB8002A44481999606E4903EB8505441CC3ED25
:100CC800007AA1FB00EC4FEADC2C06FB1C0003EBCE
:100CD800800090ED030AA1FB04C0A1FB02C1C00A79
:100CE800C90A06FB104406FB112203EB840191EDAF
:100CF800037A37EE407AA7EE870AF0EE487AE6EEF6
:100D0800807A38EE000AC5ED037A5A608AE7B0EEB9
:100D1800480A5848BDEC028BBDE8704012F042B852
:100D2800B0EE480A5448BDEC028BBDE8704012F0A2
:100D380063BAB0EE480A4448BDEC028BBDE8704087
:100D480012F0B6BEB0EE480A4C48BDEC028BBDE8C6
:100D5800704012F0D5BD4A494A4A4B4BB0EE480A9A
:100D6800D1ED001A92ED001AD3ED000ABDEC028B0A
:100D7800BDE87040FFF72CBE44499FED3A6AD1EDBB
:100D8800017A91ED027A0B6837EE677AD1ED036A42
:100D98005C68354AE7EE067A344D03EB840CBDEE09
:100DA800E77AC1ED017A17EE101AB8EEC77A9142C8
:100DB80077EEC77A28BF11462244081999602C4952
:100DC800441CC3ED007AA1FB006E4FEADE2E05FB42
:100DD8001E0003EB800090ED030AA1FB0460A1FB59
:100DE8000261C00AC90A05FB104405FB112103EB87
:100DF800840494ED037A37EE407AA7EE870AF0EE82
:100E0800487AE6EE807A38EE000ACCED037A59602B
:100E180008E71F491F4A204B14E72049204A214B65
:100E28009CE72149214A224B98E7224923E7224996
:100E3800224A234B06E700BF6C5F0024000096445B
:100E48000000C8438C8E0124908E0124C8600024C1
:100E5800508E0124B0600024B4600024A0600024F7
:100E6800944F002417B75139FF760100007701002D
:100E7800F119760514040024D44F0024548E01245B
:100E88009C6000249860002494600024744F00241F
:100E9800286000242C6000241860002414600024BA
:100EA800106000240C600024586000245460002462
:100EB80050600024844F00246C600024706000247B
:100EC8005C600024002A55D02DE9F84F81468A46F7
:100ED800904600240BE0012B26D0022B38D0DAF8FC
:100EE800003001343B44A04583ED000A2ED0D9F8E8
:100EF8000020A700204B02EB84021B7892ED000A29
:100F0800002BE8D11D4D2A78002AE8D09B461C4EBC
:100F18001A460BF1010BB05CFFF748FE29785FFA1F
:100F28008BF29142F5D8DAE7164D2B78002BD6D004
:100F38000026DFF858B0324601361BF80200FFF7EA
:100F480035FE2978F2B29142F6D8C8E7BDE8F88FA5
:100F58000D4D2B78002BC2D00026DFF834B0324676
:100F680001361BF80200FFF721FE2978F2B2914200
:100F7800F6D8B4E7704700BF508E0124FC5F002408
:100F88000400002440600024846000240800002439
:100F98000C0000249B4B1B784BB99B4B1B78072BF1
:100FA80009D8DFE803F0232D37434D08565F012B9E
:100FB80061D0022B02D09FED950A7047924B1B78A7
:100FC800072BF8D801A252F823F000BF75110008CA
:100FD800BB11000899110008A91100088711000821
:100FE800BF0F0008611100084D110008002800F02B
:100FF800998001280CBF864B864B93ED000A7047F9
:10100800002800F0978001280CBF834B834B93ED99
:10101800000A70470028CED00128814B76D0DFED3A
:10102800817A93ED027A87EE270A7047002800F04C
:10103800858001280CBF7C4B7C4B93ED000A7047E0
:10104800002873D001280CBF794B7A4B93ED000A26
:1010580070470028AFD001280CBF774B774B93ED32
:10106800000A70470028A6D001280CBF744B754BA6
:1010780093ED000A7047644B1B78072B9BD801A29D
:1010880052F823F01B110008F71000080911000896
:10109800E5100008D3100008BF0F0008BF100008B3
:1010A800AD100008002886D001280CBF664B674B9E
:1010B80093ED000A704700283FF47DAF01280CBF6C
:1010C800634B644B93ED000A704700287DD00128DC
:1010D8000CBF614B614B93ED000A7047002870D03C
:1010E80001280CBF5E4B5F4B93ED000A7047002848
:1010F8006FD001280CBF5C4B5C4B93ED000A704726
:1011080000283FF458AF0128594B88D193ED030AC2
:101118007047002861D001280CBF564B564B93ED01
:10112800000A7047554B93ED000A7047544B93EDF6
:10113800000A7047534B93ED000A7047524B93EDEA
:10114800000A704700283FF436AF01280CBF4F4B08
:101158004F4B93ED000A704700283FF42CAF01284D
:101168000CBF4C4B4C4B93ED000A7047002838D00D
:1011780001280CBF494B4A4B93ED000A70470028E1
:1011880037D001280CBF474B474B93ED000A7047F7
:1011980000283FF410AF0128444B7FF440AFB5E777
:1011A80000282AD001280CBF414B424B93ED000A7E
:1011B8007047D0B101280CBF3F4B404B93ED000A5C
:1011C80070473F4B93ED000A70473E4B93ED000A82
:1011D80070473D4B93ED000A70473C4B93ED000A76
:1011E80070473B4B93ED000A70473A4B93ED000A6A
:1011F8007047394B93ED000A7047384B93ED000A5E
:10120800704700BF508E0124A44F00240000000046
:10121800106000240C6000242C6000242860002446
:10122800744F00240080BB47046000240860002439
:101238002060002424600024386000243C600024DE
:101248003060002434600024746000247860002436
:101258007C600024806000246460002468600024AE
:10126800486000244C600024706000246C600024F6
:10127800844F00245460002450600024146000242B
:101288001C6000241860002400600024B86000245A
:10129800BC600024C0600024C4600024986000245E
:1012A80094600024A8600024AC600024944F0024BB
:1012B8008C60002490600024B4600024B060002496
:1012C80044600024606000245C60002458600024AE
:1012D8009C600024A0600024A4600024886000248E
:1012E8009A4B70B52DED028B1B784BB9984B1B7838
:1012F800072B0AD8DFE803F0A5B246542A1A7087EC
:10130800012B00F0B880022B02D0BDEC028B70BD1F
:101318008F4B1B78072BF8D8DFE813F0240217024D
:101328001102F501D9010800C201A401894BDFEDC2
:101338008A7A9FED8A0A93ED007A8948A7EE270AF0
:10134800BDEC028BBDE8704012F0A8BC854E864803
:10135800864D96ED000A11F0FFFF3268844B854CEC
:1013680095ED000A80481A6011F0C6FF2A68824B82
:1013780094ED000A7C481A6011F0D2FF7F4B226876
:101388001A60C2E77B499FED7E7A784A7D4BD1EDA2
:10139800007A126867EE877ADA60C3ED027AB4E7FA
:1013A800704E7948714D96ED000A11F089FE326849
:1013B800764B704C95ED000A73481A6011F02AFEBE
:1013C8002A68734B94ED000A6F481A6011F03EFECC
:1013D800704B22681A6098E7644D664C6E4895ED2C
:1013E800000A12F0A9FA94ED000ADFED6C7A2A6877
:1013F8006B4B20EE270A68481A6012F093FA694B83
:1014080022681A6081E7594D9FED678A95ED000AB9
:10141800664820EE080A574C12F0F6F9D5ED007A26
:10142800634B27EE880A6148C3ED007A12F002F98F
:1014380094ED000A5D4812F0CBF85E4B22681A6002
:1014480063E748495C4B0C6848484A4A1C60006896
:1014580012685A495A4B08601A6056E74149594B75
:101468000C684248434A1C60006812685649574B4A
:1014780008601A6049E7364B1B78072B3FF645AFE3
:1014880001A252F823F000BF5316000839160008CD
:101498002D160008F51500081B150008351300085F
:1014A800ED140008B1140008304D9FED3F8A95ED0A
:1014B800000A3E4820EE080A2E4C12F0A5F9D5ED98
:1014C800007A434B27EE880A3848C3ED007A12F0B9
:1014D800B1F894ED000A354812F07AF83D4B2268CD
:1014E8001A6012E7214D234C2B4895ED000A12F0A3
:1014F80023FA94ED000ADFED297A2A68364B20EEAC
:10150800270A25481A6012F00DFA344B22681A602F
:10151800FBE6144E1448154D96ED000A11F01CFF19
:1015280032682F4B134C95ED000A0F481A6011F0E2
:10153800E3FE2A682B4B94ED000A0B481A6011F061
:10154800EFFE294B22681A60DFE600BF508E0124A7
:10155800A44F00248C8E0124000096440000C84348
:10156800908E0124945F0024D44F0024985F0024B7
:101578001C6000249C5F0024206000242460002458
:101588000080BB47744F002414040024006000242A
:101598000460002408600024548E0124000048439D
:1015A800386000243C60002400401C46C8600024C9
:1015B800306000243460002414600024106000248B
:1015C8000C600024186000242C600024286000248B
:1015D80074600024786000247C600024806000240B
:1015E800606000246460002468600024644E6548DC
:1015F800654D96ED000A11F063FD3268634B644C4B
:1016080095ED000A5F481A6011F004FD2A68614BE5
:1016180094ED000A5B481A6011F018FD5E4B2268D1
:101628001A6072E658499FED5D7A594A5C4BAEE6FE
:1016380053495C4B0C685448554A1C600068126852
:1016480059495A4B08601A605FE64D49584B0C6877
:101658004D484F4A1C60006812685649564B08604E
:101668001A6052E6484D9FED558A95ED000A544898
:1016780020EE080A464C12F0C7F8D5ED007A514B17
:1016880027EE880A4E48C3ED007A11F0D3FF94ED97
:10169800000A4B4811F09CFF4B4B22681A6034E655
:1016A800394D3B4C494895ED000A12F045F994ED47
:1016B800000ADFED477A2A68464B20EE270A43489E
:1016C8001A6012F02FF9444B22681A601DE62C4E5E
:1016D80042482D4D96ED000A11F03EFE3268404B0F
:1016E8002B4C95ED000A3D481A6011F005FE2A685A
:1016F8003C4B94ED000A39481A6011F011FE3A4B40
:1017080022681A6001E61E4E1E481F4D96ED000A1B
:1017180011F0D6FC3268354B1D4C95ED000A19487E
:101728001A6011F077FC2A68314B94ED000A1548CD
:101738001A6011F08BFC2F4B22681A60E5E51249FC
:101748009FED167A124A2C4B21E60D492B4B0C685B
:101758000D480F4A1C60006812682949294B086027
:101768001A60D2E50649284B0C680748084A1C60ED
:10177800006812682549264B08601A60C5E500BF55
:10178800945F002414040024985F0024446000241B
:101798009C5F0024486000244C6000240080BB4704
:1017A800844F00246C600024706000245C60002476
:1017B80058600024546000245060002400401C46F7
:1017C800C8600024B8600024BC600024548E012442
:1017D80000004843C0600024C4600024D44F0024A3
:1017E800A4600024A8600024AC6000248860002461
:1017F8008C60002490600024944F0024B060002482
:10180800B4600024A06000249C6000249860002438
:1018180094600024012810B406D0022830D0D0B13A
:1018280000205DF8044B7047224B18780028F8D048
:10183800214B411E214C00205A1C94F800C052FA3A
:1018480081F113F8012B624508BF01208B42F8D1C2
:101858005DF8044B70471A4B197841B3194B01399D
:10186800164C5A1C94F800C052FA81F113F8012B57
:10187800624508BF01208B42F8D15DF8044B7047E0
:10188800114B18780028CCD0104B411E0B4C00206F
:101898005A1C94F800C052FA81F113F8012B6245E2
:1018A80008BF01208B42F8D15DF8044B7047084609
:1018B800B7E700BF4060002408000024A44F0024BC
:1018C800FC5F002404000024846000240C00002431
:1018D80008B52DED028BB7EE008A1748002102F0FB
:1018E800ADFB164B38EE400A01211348B0EEC00A92
:1018F80083ED000A02F0A2FB38EE400A104B0221E9
:101908000D48B0EEC00A83ED000A02F097FB38EEEE
:10191800400A0C4B03210848B0EEC00A83ED000AC8
:1019280002F08CFB38EE400A074BBDEC028BB0EEA0
:10193800C00A83ED000A08BD6C5F0024945F002490
:10194800985F00249C5F00248C8E0124484BF0B5DE
:101958001B787BBB474C207858B3474A474992F8D5
:1019680000E00A4602E00133834222DA12F801CB92
:10197800F445F8D183421ADA5A1C0B4407E0604553
:1019880083F800E002F1010203F101030FDD511EAB
:1019980094464FF0090E0129F1DC5978604583F827
:1019A80001E002F10102197003F10103EFDC0138D3
:1019B8002070F0BD012B2DD0314E30780028F8D0A2
:1019C8002D4B30491C7800230A4602E0013383423C
:1019D800EFDA12F801CBA445F8D1834217DA5A1C82
:1019E8000B4406E084451C7002F1010203F1010377
:1019F8000DDA511E944609240129F3DC59788445EF
:101A08005C7002F10102197003F10103F1DB013886
:101A18003070F0BD1C4F38780028CAD0164B1B49CF
:101A28001D7800230A4602E001338342C1DA12F826
:101A3800014BAC42F8D1834217DA5A1C0B4406E03A
:101A480084421D7002F1010203F101030DDA511EF7
:101A5800144609250129F3DC597884425D7002F1A6
:101A68000102197003F10103F1DB01383870F0BD90
:101A7800508E0124FC5F0024A44F0024040000249D
:101A8800846000240C000024406000240800002426
:101A980010B5112096B000F08DFD0346022204A86F
:101AA800ADF80030009902F091F8102000F082FDA6
:101AB800ADF80400019902220DF12200114C02F048
:101AC80085F80F2000F076FDADF808000299022293
:101AD8000DA802F07BF8122000F06CFDADF80C00A8
:101AE80003990DF14600022202F070F8042304A9BC
:101AF80020461A4602F07EF8204602F089FA16B00F
:101B080010BD00BF6C5F0024424A4FF47A7330B5B1
:101B1800414C424D20462DED028B83B011780122B5
:101B28009FED3F8A8DF807100DF1070104F0AAFC1C
:101B38003C494FF47A730122097820468DF8071042
:101B48000DF1070104F09EFC374901224FF47A7326
:101B5800D1ED007A204667EE887AFCEEE77A17EE38
:101B6800901A11448DF807100DF1070104F08AFC52
:101B78002E4901224FF47A73D1ED007A204667EEA0
:101B8800887AFCEEE77A17EE901A11448DF8071060
:101B98000DF1070104F076FC254901224FF47A7310
:101BA800D1ED007A204667EE887AFCEEE77A17EEE8
:101BB800901A11448DF807100DF1070104F062FC2A
:101BC8001C494FF47A730122097820468DF80710D2
:101BD8000DF1070104F056FC17494FF47A730122FE
:101BE800097820468DF807100DF1070104F04AFC2A
:101BF8002A784FF47A730DF107018DF807202046F3
:101C0800012204F03FFC00232B7003B0BDEC028BD3
:101C180030BD00BF0F000024888E0124D04F00245F
:101C28000000C842A44F0024945F0024985F002459
:101C38009C5F0024508E0124704F002466494FF4A5
:101C48007A73012270B52DED028B087882B0634D4E
:101C58008DF807000DF10701614804F013FC2C789A
:101C6800012C76D0022C00F0B480002C00F0958076
:101C78002046FFF7CFFD00284BD09FED5A8A002061
:101C8800FFF788F9012220EE080A4FF47A730DF164
:101C980007015348BCEEC00A10EE104A14448DF8F0
:101CA800074004F0EFFB01200DF10701FFF772F97F
:101CB80020EE080A02464FF47A73BCEEC00A10EE12
:101CC800100A10448DF80700454804F0DBFB022099
:101CD800FFF760F920EE080A01224FF47A730DF13C
:101CE80007013F48BCEEC00A10EE104A14448DF8B4
:101CF800074004F0C7FB01224FF47A730DF1070186
:101D080037488DF8072004F0BDFB02B0BDEC028B0C
:101D180070BD01240DF107014FF47A733048224653
:101D28008DF8074004F0AEFB22460DF107014FF491
:101D38007A732B488DF8074004F0A4FB4FF47A73AC
:101D480022460DF1070126488DF8074004F09AFB5A
:101D5800D1E7254E22460DF10701214833788DF849
:101D680007304FF47A7304F08DFB737822460DF137
:101D780007018DF807304FF47A73194804F082FB95
:101D8800B17822464FF47A738DF807100DF10701E8
:101D9800134804F077FB2C786AE7144C21784FF449
:101DA8007A7301220E488DF807100DF1070104F02F
:101DB80069FB62784FF47A730DF107018DF80720FB
:101DC8000122074804F05EFBA1784FF47A730122E0
:101DD800DAE7074CE2E700BF10000024508E012428
:101DE800888E01240000C842080000240400002452
:101DF8000C000024F8B5424E424B3478022C2DEDED
:101E0800048B187855D8FFF705FD88B300203E4DA0
:101E1800FFF7C0F80120B0EE409AFFF7BBF80220A8
:101E2800F0EE408AFFF7B6F8B0EE408A374C01234F
:101E38002B70FFF74DFDFFF767FEFFF7FFFEFFF77B
:101E48004FFA324801F03CFE23791BB1636A002B3C
:101E58003CDC29D1237B002BE9D0A37C7F2BE6D166
:101E68000023BDEC048B2B70BDE8F840FFF76EBD76
:101E7800274B621C274F1B78234D3B55234C327050
:101E8800FFF72EFA01232B70FFF722FDFFF73CFE28
:101E9800FFF7D4FE1D4801F013FE2379002BEFD085
:101EA800636A002B23DCEBD000232B70BDEC048B82
:101EB800F8BDFFF7AFFC0028A8D1032C164B14BFC0
:101EC800012202221A70BDEC048BF8BD134B0020CE
:101ED8001349144A83ED008A81ED009AC2ED008A05
:101EE8002870BDEC048BBDE8F840FFF7F9B93378EA
:101EF8000922013BDBB23370FA5400232B70D5E77B
:101F0800FC5F0024508E0124704F0024A84F002449
:101F1800A44F002404000024D04F00249C5F002418
:101F2800945F0024985F0024F8B5464E464B3478F9
:101F3800022C2DED048B187855D8FFF76BFC88B36D
:101F48000020424DFFF726F80120B0EE409AFFF737
:101F580021F80220F0EE408AFFF71CF8B0EE408A24
:101F68003B4C01232B70FFF7B3FCFFF7CDFDFFF7C8
:101F780065FEFFF7B5F9364801F0A2FD23791BB1DC
:101F8800636A002B44DC3BD1237B002BE9D0A37C84
:101F98007F2BE6D10023BDEC048B2B70BDE8F84005
:101FA800FFF7D4BC2B4B621C2B4F1B78274D3B559E
:101FB800274C3270FFF794F901232B70FFF788FC48
:101FC800FFF7A2FDFFF73AFE214801F079FD2379DA
:101FD800002BEFD0636A002B2BDCEBD00023BDEC89
:101FE800048B2B70F8BDFFF715FC0028A8D1032C33
:101FF8001A4B14BF012202221A70BDEC048BF8BDE3
:102008000023BDEC048B2B70BDE8F840FFF768B9DE
:10201800134B00201349144A83ED008A81ED009A7E
:10202800C2ED008A2870BDEC048BBDE8F840FFF7CC
:1020380057B933780922013BDBB23370FA540023D5
:102048002B70DAE740600024508E0124704F002482
:10205800A84F0024A44F002408000024D04F0024D7
:102068009C5F0024945F0024985F0024F8B5454ED7
:10207800454B3478022C2DED048B187853D8FFF794
:10208800C9FB78B30020414DFEF784FF0120B0EE74
:10209800409AFEF77FFF0220F0EE408AFEF77AFFB3
:1020A800B0EE408A3A4C01232B70FFF711FCFFF782
:1020B8002BFDFFF7C3FD364801F002FD23791BB164
:1020C800636A002B44DC3BD1237B002BEBD0A37C41
:1020D8007F2BE8D10023BDEC048B2B70BDE8F840C2
:1020E800FFF734BC2B4B621C2B4F1B78274D3B55FD
:1020F800274C327001232B70FFF7F2F8FFF7E8FB4B
:10210800FFF702FDFFF700FD214801F0D9FC237914
:10211800002BEFD0636A002B2BDCEBD00023BDEC47
:10212800048B2B70F8BDFFF775FB0028AAD1032C90
:102138001A4B14BF012202221A70BDEC048BF8BDA1
:102148000023BDEC048B2B70BDE8F840FFF7C8B83E
:10215800134B00201349144A83ED008A81ED009A3D
:10216800C2ED008A2870BDEC048BBDE8F840FFF78B
:10217800B7B833780922013BDBB23370FA54002335
:102188002B70DAE784600024508E0124704F0024FD
:10219800A84F0024A44F00240C000024D04F002492
:1021A8009C5F0024945F0024985F00242DE9F0418F
:1021B800A9480427A94DAA4CDFF81883A94E2DED8C
:1021C800028B9AB000F0F4F90021A34800F0E8FA75
:1021D8004FF47A7004F072FB02219F4800F008FA6D
:1021E8009D4800F001FAB0EE408A9F4810F010FDBB
:1021F8009E48B0EE480A10F093FFB0EE480A9C489B
:1022080011F036FBB0EE480A9A4811F0D1F8B0EE5A
:10221800480A284611F0A6FB032328469FED960A94
:10222800AB6511F099FD2846B5EE000A11F0A8FD3E
:1022380028469FED920A11F0D1FDB0EE480A2046DB
:102248008F4D11F08FFB20469FED8E0AA76511F088
:1022580083FD2046B7EE000A11F0C0FD2046B7EE18
:10226800000A11F08DFD20469FED870A002411F029
:1022780015FDB0EE480A2846B5EE008A11F072FB4B
:1022880028469FED820AAC6511F066FD2846B7EE38
:10229800000A11F0A3FD2846B7EE000A11F070FD00
:1022A8009FED7B0A2846012511F0F8FC2146794A62
:1022B800794812F043FD794B794A214679481A60EA
:1022C800C3F8088083ED038AC2E90145714A12F018
:1022D80035FD754B6F4A214674481E60C3F8088067
:1022E80083ED038AC6E9014512F028FD704B1E6094
:1022F800C3F8088083ED038A6E4B6F4EC3E901452E
:10230800FFF7C6FB204600F055F9ADF810009FED29
:102318006B0A07A8049901F011FC284600F04AF955
:10232800ADF814009FED650A0BA8059901F006FCAD
:10233800022000F03FF9ADF818009FED600A0FA8E1
:10234800069901F0FBFB06239FED4E0A8DF8043039
:102358008DF808300A238DF80C508DF805300B23C2
:10236800019957488DF80D708DF80930DDE9022381
:1023780001F076FB47F6122313A952481993524BE2
:1023880014941694159513934D4CCDE9175504F0F4
:102398000FF84E4930484E4D00F022F90FE0002367
:1023A8002B70237B3BB1A37C7F2B04D13378002B8C
:1023B80047D1FFF71FFDFFF7A7FBFFF73FFC07A873
:1023C80001F0D6FB9DF820302BB19DF826307F2BED
:1023D80001D1022333700BA801F0CAFB9DF83030FD
:1023E8002BB19DF836307F2B01D1012333700FA814
:1023F80001F0BEFB9DF840302BB19DF846307F2B95
:1024080001D1002333702E4801F05AFB237983B1A0
:10241800636A002B0FDD2B78013BDBB22B70A3F135
:102428000802D2B2BF2ABAD9C82BBAD907232B704F
:10243800B7E72B78F3E7FCD02B780133DBB22B70AE
:10244800EDE7012B04D0022BB5D1FFF70FFEB2E761
:10245800FFF76AFDAFE700BF545F0024908E0124A8
:10246800F85E00240CDC05C014040024D44F0024BA
:10247800548E0124C8600024CDCC4C3FCDCC0C40F8
:10248800A05F0024000000000000C842CDCCCC3D75
:1024980000606A4600DC050024B80BC0744F0024B5
:1024A80018B80BC018DC05C0844F00240C0000C00D
:1024B800944F0024000000C0508E012400007A448C
:1024C800A84F0024888E012401060107CD0E0008BC
:1024D800A44F00240000164538B520480025204C9C
:1024E80020492246056045610562C56311F05CFE1E
:1024F8001D4B22461D491D601D4811F055FE224600
:102508001C491D4811F050FE22461C491C4811F078
:102518004BFE1C48FEF74CFA1B48FEF749FA1B48CD
:10252800FEF746FA1A4D22461A491B4811F03CFE9E
:1025380022461A491A4811F037FE224629461948F8
:1025480011F032FE22462946174811F02DFE224688
:1025580029461648BDE8384011F026BE545F0024CD
:1025680000000024A1090008888E01249D090008A4
:10257800A84F0024A509000814040024B109000884
:10258800D44F0024908E0124F85E0024A05F00241C
:10259800B5090008AD090008548E0124A9090008EE
:1025A800C860002418B80BC00CDC05C0000000C0CF
:1025B800704700BF202882B009D8084B03EB4002BF
:1025C80013F81030507843EA002002B07047012316
:1025D8000C2043EA002002B0704700BF904D01086C
:1025E800143001F009BA00BF143001F001BA00BF7D
:1025F80038B500F1140504462DED028B284601F08C
:10260800E9F9284601F0F4F92846B0EE408A01F0CD
:10261800DDF9D0ED007AF8EE677A88EE277ABDEC1E
:10262800028B84ED0E7A38BD10B540F203338EB0BC
:1026380000244FF60B7240F20341ADF8083009A8A8
:102648000123ADF81020ADF824202246ADF80C1077
:102658000094029907940C94CDE90544CDE90A4405
:1026680001F0F4FD04A8012322460399009401F027
:10267800EDFD09A801F0D0FE10B901200EB010BD83
:1026880004A801F0C9FEA0420CBF022020460EB0EB
:1026980010BD00BF2DE9F04103239AB001270024A3
:1026A8000646CDE914373B4BCDE9104340F20453BD
:1026B800CDE91647ADF84830FFF7B6FFB8420546F2
:1026C80025D0022845D040F60132334B0DF12C08B5
:1026D8001894ADF82C200B981997CDF84A3000F0D3
:1026E800E3F810A906F13C0002F0DEFE30200322D8
:1026F8004FF07E5341460D930E93CDE90B02F26BDA
:1027080006F1140001F02AF91AB0BDE8F08110238F
:10271800214A06A906908DF828300DF12C081F4B88
:10272800CDF84A2007930294CDE91804CDE90804AE
:1027380002A802F0F1F80823029A03A94046ADF86E
:102748000C508DF80E40049505930B9400F0ECF8AE
:10275800C7E700200121104B0DF12C083A460094E0
:10276800CDF84A304FF60B730C94ADF82C30234655
:10277800CDE9180140F601314046ADF81810069928
:10278800CDE90D4401F062FD2146404601F050FEBE
:10279800A7E700BF04020404040604030704010BAE
:1027A8002DE9F04704462DED028B82B000294DD06B
:1027B800012140F2011200230091ADF804208DF8A8
:1027C8000630364A0127364B04F10409354904F12D
:1027D8002908626040F20272A36040F60663E16075
:1027E80004F1250AA4F82520A4F82930278284F8C2
:1027F800277084F82B7004F0FDF9054604F060F8A2
:102808006946064650BB4DB304F130008DF806709A
:1028180004F078F9072D3CD104F114052046FFF7A0
:1028280039FF284601F0E4F82846B0EE408A01F066
:10283800CDF8D0ED007AF8EE677A88EE277A84ED45
:102848000E7A02B0BDEC028BBDE8F08740F20113AE
:1028580000918DF80610ADF80430B2E704F13000AD
:1028680004F050F9072D11D04946204602F09CFA91
:102878000EB9002DD0D1504601F0E4FD404601F0DC
:10288800E1FD04F1120000F079F9C5E7002EF2D15C
:10289800C2E74946204602F087FABDE70508050960
:1028A80005070506050A060610B584B00346012487
:1028B800ADF8040003A8ADF80C30ADF80E4001F0F7
:1028C800C1FD214603A801F0A7FE204603F0F6FF4C
:1028D800002103A801F0A0FE204603F0EFFF2146E7
:1028E80003A801F099FE04B010BD00BF10B5C2F3F3
:1028F800002384B00C46017C8DF80D2043EA440285
:10290800FA2402238DF80C2003AA009402F09AF806
:1029180018B10124204604B010BD04460A2003F073
:10292800CDFF204604B010BD034670B543F8042B14
:10293800044684B007C983E80700A37983B91A213C
:102948000B461E22FA2523742046ADF80C200223DC
:1029580003AA009502F076F828B1012004B070BDF2
:102968001B210B46EDE70A2003F0A8FF4FF4B852ED
:1029780000950223ADF80C20204603AA217C02F022
:1029880061F80028E9D10A2003F098FF41F20272A9
:1029980000950223ADF80C20204603AA217C02F002
:1029A80051F80028D9D10A2003F088FF04220095A5
:1029B8000223ADF80C20204603AA217C02F042F83D
:1029C8000028CAD10A2003F079FF062200950223C5
:1029D800ADF80C20204603AA217C02F033F8002829
:1029E800BBD10A2003F06AFF41F2082200950223B6
:1029F800ADF80C20204603AA217C02F023F8002819
:102A0800ABD10A20064603F059FF0095022303AA1A
:102A1800217C2046ADF80C6002F014F800289CD107
:102A2800304603F04BFF009522790C232046002AFC
:102A38008DF80C3003AA4FF0020314BF6221422123
:102A48008DF80D10217C01F0FDFF002885D130465E
:102A580003F034FF2279D4E902310B43DBB20AB91F
:102A680043F0400362790AB143F020030E22FA25AD
:102A78008DF80D302046009502238DF80C2003AA0E
:102A8800217C01F0DFFF00287FF467AF0A2003F004
:102A980015FF102200950223ADF80C20204603AA4A
:102AA800217C01F0CFFF00287FF457AF0A2003F004
:102AB80005FF122100950223ADF80C1003AA217C12
:102AC800204601F0BFFF00287FF447AF0A2003F03B
:102AD800F5FE012209212046FFF708FF003818BF3C
:102AE80001203BE7F0B5102387B0234C01220025D5
:102AF8000126002702A920460195CDE902234FF4BB
:102B08008052CDE904670AF02DFE642004F018FB1A
:102B180002A94FF480522046CDE904670226102707
:102B2800CDE902670AF01EFE0322102302A92046FF
:102B3800CDE9022300230422CDE904234FF4805277
:102B48000AF010FE40F23223042202A90193102356
:102B58002046CDE90223019A012305924FF48052C1
:102B680004930AF0FFFD40F6060120460AF01AFE1B
:102B7800284607B0F0BD00BFF48E01241C4B00228C
:102B88001C494FF0400C30B5054689B00220596009
:102B980007219A601A620124DA620A224FF4006E51
:102BA800DC6006922022CDE9000104200821CDE94D
:102BB800020103201021CDE9040108206946C3E978
:102BC80004024FF4C072181DC3E906C24FF48052C4
:102BD800C3E909E20AF09CFD38B92846FFF782FFED
:102BE800003818BF012009B030BD204609B030BDFB
:102BF800F08E012440410052614A0021D0B513688B
:102C08008EB00A91002B40F0B9805E4B01214FF63F
:102C180083700C2411600221D3F8D42000260327E6
:102C280042F48052C3F8D420D3F8D42002F480525E
:102C38000092009AD3F8E02042F01002C3F8E02096
:102C4800D3F8E02002F010020192019AD3F8E020B4
:102C580042F04002C3F8E020D3F8E02002F040023E
:102C68000292029AD3F8E02042F00802C3F8E0206A
:102C7800D3F8E02002F008020392039AD3F8E02088
:102C880042F48072C3F8E020D3F8E02002F48072A6
:102C98000492049AD3F8E02042F08002C3F8E020BE
:102CA800D3F8E02002F080020592059AD3F8E020DC
:102CB80042F02002C3F8E020D3F8E02002F020021E
:102CC8000692069AD3F8E02042F00402C3F8E02006
:102CD800D3F8E0300C9403F0040307930323079A16
:102CE8000B93CDE9080108A9274806F0AFF848F288
:102CF8003712022308A925480C94CDE90823CDE909
:102D08000A6706F0A3F84CF20372022308A92048C8
:102D18000C94CDE90823CDE90A6706F097F840F24C
:102D2800FF62022308A91B480C94CDE90823CDE9CA
:102D38000A6706F08BF84FF60C72022308A91648AA
:102D48000C94CDE90823CDE90A6706F07FF84FF621
:102D58003F02022308A911480C94CDE90823CDE9C4
:102D68000A6706F073F82022022308A90A480C947F
:102D7800CDE90A67CDE9082306F068F80EB0D0BDA2
:102D8800EC8E012400440258001002580018025822
:102D9800000C025800200258001C02580014025867
:102DA8002DE9F04FDFF8108406460D46144608F169
:102DB80018002DED028B89B000AF02F06DFCD8F839
:102DC800183073B3D8F81C30D8F80490002B436936
:102DD8000BBF4FF0080A4FF0100A4FF0020B4FF0EC
:102DE800040BB9F1000F2AD0A200EA46012B02F128
:102DF800070222F00702ADEB020D6846ADEB020DAB
:102E0800694600F03F81022B00F0D680002B6FD07E
:102E18002246C847D5462437BD46BDEC028BBDE8DF
:102E2800F08FD8F81C30002BF5D0D8F804904FF06C
:102E3800080A4FF0020B4369B9F1000FD4D1FB61C6
:102E4800D8F80030BB61002BE5D0D54802F096FCDD
:102E58006B46BBF1020F786108EE103AFB6900F08F
:102E680083816A465146A2EBC40295466200EA464F
:102E7800B2FBFBF2AAEBC40085460AEB8200EE46E1
:102E8800F861ADEB010DF8690EEB820CC7F810C0C4
:102E9800EC46ADEB010D00EB8201CCF80400CCF858
:102EA800081001EB82013869E946CCF80C1000EBF8
:102EB8008201CCF800A001EB8202C9E900E0C9E96F
:102EC8000212012B00F06483022B00F06C82002BAD
:102ED80000F08081620849466046BB69984718EE51
:102EE800103A24379D46BD46BDEC028BBDE8F08FF5
:102EF800002C8DD01A46D8ED0C6A9FEDB27A844624
:102F0800331D36F922E00CF1080C07EE90EA33F98C
:102F180022E00232F8EEE77A944267EE877A67EEAB
:102F2800A67A4CED027A07EE90EAF8EEE77A67EEB9
:102F3800877A67EEA67A4CED017AE2D8F9612246E3
:102F4800C847984ED8ED0D6A0020F9692B1D9FEDF2
:102F58009E7A9FED9E6ADFED9E5A22E0F4EEC67AD5
:102F6800F1EE10FAC0F2C88447F6FE72D1ED017A8C
:102F780045F8202066EEA77AF4EEC77AF1EE10FA4B
:102F880040F2F080F4EEC67AF1EE10FAC0F2D58481
:102F980047F6FE7243F820200230083184427FF65B
:102FA80039AFD1ED007A66EEA77AF4EEC77AF1EE82
:102FB80010FAD3D83246D9E7002C3FF429AFD8ED20
:102FC8000C6A84469FED787A0022331D8E4656F8A7
:102FD80022100CF1080C07EE901A53F82210023256
:102FE800F8EEE77A944267EE877A67EEA67A4CEDB8
:102FF800027A07EE901AF8EEE77A67EE877A67EEBC
:10300800A67A4CED017AE2D871462246C7F81CE050
:10301800C847664ED8ED0D6A0020F9692B1D9FED53
:103028006A7A9FED6A6ADFF894C120E0F4EEC67A06
:10303800F1EE10FAC0F279843246D1ED017A45F802
:10304800202066EEA77AF4EEC77AF1EE10FA40F285
:103058008780F4EEC67AF1EE10FAC0F25E8432464A
:1030680043F820200230083184427FF6D3AED1EDF8
:10307800007A66EEA77AF4EEC77AF1EE10FAD5D8A0
:103088006246DAE7002C3FF4C3AED8ED0C6A8646F8
:103098009FED477A4FF0000C331D56F82C200EF1A7
:1030A800080E82F40002A2F5000207EE902A53F8F7
:1030B8002C200CF1020CF8EEE77A82F40002644549
:1030C800A2F5000267EE877A67EEA67A4EED027ADD
:1030D80007EE902AF8EEE77A67EE877A67EEA67A27
:1030E8004EED017AD9D8F9612246C847314ED8ED5C
:1030F8000D6A0020F9692B1D9FED337A9FED336A25
:10310800DFF8BCC01FE0F4EEC67AF1EE10FAC0F2A8
:10311800FC833246D1ED017A45F8202066EEA77A85
:10312800F4EEC77AF1EE10FA18D9F4EEC67AF1EE99
:1031380010FAC0F2DA83324643F820200230083110
:1031480084427FF667AED1ED007A66EEA77AF4EE98
:10315800C77AF1EE10FAD6D86246DBE76246EBE7AB
:1031680062467DE7324615E7A100D6466208073178
:1031780021F00701ADEB010DEA46ADEB010D694603
:10318800ADEB0E0D0AEB8200EC46ADEB0E0D01EB3C
:103198008202F861E946CCE900A0C9E9001290E68C
:1031A800448F01240280FFFF000000300082FF7F6F
:1031B8000000003482FF7F00288F0124007E0080F9
:1031C8007E0080FF0000003804FF7FBF04FF7F3FC0
:1031D80000FEFF46002C00F0C982BBF1020FD8F8B0
:1031E800242000F0FA827969C7F8049002EB810E76
:1031F8005FED0C5A8A00DCF808100EF104007A61C1
:103208001A46DCF80C303B61331DD7F810903D614D
:10321800FD69C7E902CB8C46834636F92210D8ED02
:103228000C7A06EE101A33F9221006EE901A3EF9BF
:103238002210B8EEC66A07EE101AF8EEE66A3BF9F5
:103248002210B8EEC77A26EE256A66EEA56A27EE42
:10325800257A26EE276A66EEA76A27EE277A07EE12
:10326800901A51080232F8EEE77A0AEB810094428C
:1032780080ED006A05EB810067EEA57AC0ED006A73
:103288000CEB810009EB810180ED007A98ED0C7A56
:1032980067EE877AC1ED007ABFD8D7F804903D6908
:1032A800D7E902CB60466208BB6949469847D8F817
:1032B8002C307A69D8ED0D6A1A441FED3D7A1FED5E
:1032C8003D6A2B1D904602F1040A5FED3F5A002229
:1032D800A84ED9E900EC51E0F4EEC67AF1EE10FA06
:1032E800C0F2C78247F6FE7045F822000CEB0100D9
:1032F800D0ED007A66EEA77AF4EEC77AF1EE10FA0E
:103308004BD9F4EEC67AF1EE10FAC0F2BA8247F65B
:10331800FE70BBF1020F43F822002BD0D9F8080049
:103328000844D0ED007A66EEA77AF4EEC77AF1EE9B
:1033380010FA36D9F4EEC67AF1EE10FAC0F2CD8260
:1033480047F6FE7048F82200D9F80C000144D1ED88
:10335800007A66EEA77AF4EEC77AF1EE10FA1ED973
:10336800F4EEC67AF1EE10FAC0F2AF8247F6FE71BB
:103378004AF82210023294427FF6B1AD51080EEBA2
:1033880081008900D0ED007A66EEA77AF4EEC77A5C
:10339800F1EE10FAA0D83046A6E73046B9E7314634
:1033A800E6E73046CEE7002C00F0E081BBF1020FE3
:1033B800D8F8243000F0E1817A69DCF8081003EBD2
:1033C800820EC7F804909300DFED6B5A0EF10400EB
:1033D80000227B61DCF80C303B61331DD7F810907C
:1033E8003D61FD69C7E902CB8C46834656F8221039
:1033F800D8ED0C7A07EE101A53F82210B8EEC76A07
:1034080007EE101A5EF82210F8EEC76A07EE101AD7
:1034180026EE256A5BF82210B8EEC77A66EEA56A32
:1034280026EE276A27EE257A66EEA76A27EE277A20
:1034380007EE901A51080232F8EEE77A0AEB81009B
:10344800944280ED006A05EB810067EEA57AC0ED35
:10345800006A0CEB810009EB810180ED007A98EDA0
:103468000C7A67EE877AC1ED007ABFD8D7F8049056
:103478003D69D7E902CB60466208BB69494698476F
:10348800D8F82C307A69D8ED0D6A1A449FED3E7A47
:103498009FED3E6A131D9246DFF8E4C00022FB61EF
:1034A8002B1D364ED9E9008E4EE0F4EEC67AF1EEC9
:1034B80010FAC0F2FC81304645F822000EEB0100FC
:1034C800D0ED007A66EEA77AF4EEC77AF1EE10FA3C
:1034D80049D9F4EEC67AF1EE10FAC0F2EF8130461F
:1034E800BBF1020F43F822002AD0D9F8080008449B
:1034F800D0ED007A66EEA77AF4EEC77AF1EE10FA0C
:1035080035D9F4EEC67AF1EE10FAC0F2C981304628
:103518004AF82200D9F80C000144D1ED007A66EE91
:10352800A77AF4EEC77AF1EE10FA1ED9F4EEC67A4D
:10353800F1EE10FAC0F2AD813146F86940F8221078
:10354800023294427FF6CBAC510808EB8100890027
:10355800D0ED007A66EEA77AF4EEC77AF1EE10FAAB
:10356800A3D86046A8E76046BAE76146E5E7604643
:10357800CEE700BF0280FFFF000000300082FF7F1F
:10358800007E00800000003404FF7FBF04FF7F3FFF
:10359800002C00F0EB807A690021D8F82430C7F8B5
:1035A800109003EB820ED7F81C909300FD610EF18A
:1035B80004021FED0C6A7B61331D154656F8212065
:1035C8004808D8ED0C6ABBF1020F82F40002A2F59C
:1035D800000207EE902A53F8212082F40002B8EE88
:1035E800E77AA2F5000227EE067A07EE902A0AEBA0
:1035F8008002F8EEE77A27EE267A67EE867A82ED81
:10360800007A09EB80024FEA800067EEA67AC2EDE5
:10361800007A27D05EF8212082F40002A2F5000289
:1036280007EE902A55F8212082F40002B8EEE77AD6
:10363800A2F5000227EE067A07EE902ADCF80820A9
:10364800F8EEE77A024427EE267A67EE867A82ED6C
:10365800007A98ED0C7ADCF80C2067EE877A024441
:10366800C2ED007A02318C42A8D8D7F81090604693
:103678006208BB694946FD699847D8F82C307A69D1
:10368800D8ED0D6A1A441FED407A1FED406A131DEC
:103698009246DFF8C4C20022FB612B1DAB4ED9E96C
:1036A800008E4EE0F4EEC67AF1EE10FAC0F2C58054
:1036B800304645F822000EEB0100D0ED007A66EEA8
:1036C800A77AF4EEC77AF1EE10FA49D9F4EEC67A81
:1036D800F1EE10FAC0F2BF803046BBF1020F43F89A
:1036E80022002AD0D9F808000844D0ED007A66EE06
:1036F800A77AF4EEC77AF1EE10FA35D9F4EEC67A65
:10370800F1EE10FAC0F2AE8030464AF82200D9F83D
:103718000C000144D1ED007A66EEA77AF4EEC77A80
:10372800F1EE10FA1ED9F4EEC67AF1EE10FAC0F2F4
:103738008B803146F86940F82210023294427FF6B5
:10374800CEAB510808EB81008900D0ED007A66EE17
:10375800A77AF4EEC77AF1EE10FAA3D86046A8E784
:103768006046BAE76146E5E76046CEE72246494645
:103778006046BB699847FFF7B2BBC7F810B0002294
:1037880098ED0C6A331DDFED726AD7F81CB07869C2
:1037980056F8221007EE901A53F82210B8EEE77A7E
:1037A80007EE901A51080232F8EEE77A27EE267AE9
:1037B8000AEB810E94420BEB810167EEA67A27EEA5
:1037C800067A67EE867A8EED007AC1ED007ADFD848
:1037D8008300D7F810B07B614DE61A46C7F810B0E1
:1037E80098ED0C6A331DDFED5B6AD7F81CB0786979
:1037F80036F9221007EE101A33F9221007EE901A44
:10380800B8EEC77A51080232F8EEE77A27EE267A40
:103818000AEB810E94420BEB810167EEA67A27EE44
:10382800067A67EE867A8EED007AC1ED007ADFD8E7
:103838008300D7F810B07B6134E5F0EE675AFEEEEE
:10384800E45A15EE900A34E7F0EE675AFEEEE45AB1
:1038580015EE901A6EE7F0EE675AFEEEE45A15EE92
:10386800900A3AE7F0EE675AFEEEE45A15EE900A2F
:103878004BE767EEA57AFDEEE77A17EE900A00B2FD
:1038880032E567EEA57AFDEEE77A17EE900A00B208
:103898003FE5F0EE675AFEEEE05A15EE901A4CE658
:1038A800F0EE675AFEEEE05A15EE900A30E6F0EEBA
:1038B800675AFEEEE05A15EE900AFDE5F0EE675AFB
:1038C800FEEEE05A15EE900A0AE667EEA57AFDEEDE
:1038D800E77A17EE901A09B24AE567EEA57AFDEE87
:1038E800E77A17EE900A00B22CE5F0EE675AFEEE82
:1038F800E45A15EE902A1FE467EEA57AFDEEE77A02
:1039080017EE902A12B2FFF731BBF0EE675AFEEEBF
:10391800E45A15EE902AFFF7FDBBF0EE675AFEEE6B
:10392800E05A15EE902AFFF79BBBF0EE675AFEEEC1
:10393800E05A15EE902AFFF780BB67EEA57AFDEEF8
:10394800E77A17EE902A12B2FFF724BB82FF7F00B6
:1039580000000030000000387E0080FF30B5184CB1
:10396800154685B0046004F1080EEC460FC98EE8D0
:103978000F00D4ED047AF5EEC07A8CE80F00F1EE72
:1039880010FA1ADDB7EE006A94ED057A27EE277A69
:10399800C6EE276A84ED0D7AC4ED0C6A6DB1204637
:1039A80040F8185F01F078FE064903690020064ACE
:1039B8002162A262E36005B030BD012005B030BDD0
:1039C800288F0124002000300000003000680830F3
:1039D800704700BFB1F5807F03680A4628BF4FF4DF
:1039E8008072B1F5807F9A6094BF002001207047F3
:1039F8000068183001F0B0BE30B5046883B00D46D9
:103A0800E3694BB1A3680020E26A616A9B000090F9
:103A180004F11C0001F042FEA3680748A26A9B005B
:103A2800216A009004F1180001F038FE0020C4E972
:103A3800005003B030BD00BFA92D000810B4074BDB
:103A48004FF07E5130240022032019619C60D86019
:103A58005DF8044B5961C3E906227047288F012499
:103A680030B585B004460025ADF80C10ADF8082037
:103A7800ADF8043002F020FFBDF80C204FF480733D
:103A8800206004F118002283BDF808206383E383D3
:103A9800A283257100F0D6FC04F11C0000F0D2FCD2
:103AA8009FED060A019904F1080000F047F84FF667
:103AB800FF736562238405B030BD00BF00000000BD
:103AC800F8B5044602F0F8FE002623682671834202
:103AD80005D104F10800BDE8F84000F049B8012715
:103AE80094F82050206004F11800BD40277100F0C0
:103AF80085FD6DB2284394F82150BD4084F820001C
:103B080004F11C0000F07AFD94F820306DB2666272
:103B180003F003032843022BC0B284F8210009D024
:103B280000F003000228D4D1002BD2D14FF0FF338C
:103B38006362CEE78307CCD16762CAE770B50446F3
:103B480082B0C1F30726CDB2ADF8041002F0B4FE7E
:103B58004FF480724FF001232060A01DA571A28050
:103B6800E671A36002B0BDE8704000F06BBC00BF16
:103B780038B5044602F0A0FE002223682271834271
:103B880010D00122A57AE37A954020602271A01D09
:103B98006DB243B900F032FD40B22843C0B27F286D
:103BA800A0720AD038BD00F029FDB0FA80F04009B3
:103BB8002843C0B27F28A072F4D102F07DFE07EE40
:103BC800900AF8EE677AC4ED037A38BD00B583B081
:103BD8004FF0000E4FF0030C4274ADF80410BDF81E
:103BE800043080F810E0A0F802C0038003B05DF84C
:103BF80004FB00BF2DE9F04FDFF81C8300258DB0D2
:103C0800C04C037008F140034260074601920E461B
:103C1800202229464046C4F86831C4F86481CDE9B9
:103C28000255CDE90455CDE90655CDE90855CDE94C
:103C38000A5511F083F82022294604F5A170C4F82A
:103C48003151C4F83551C4F83951C4F83D5111F017
:103C580075F8019B84F8485284F830317A68002A54
:103C68006AD02B4604F59871454606F1100A9E461F
:103C7800F01856F803B0E2180EF1010ED0F80CC097
:103C8800D0F80490D0F8088044F803B0C2F80CC00B
:103C98004FF0000CC2F80490C2F80880008A25F89A
:103CA80002CB10821AF8032001F8012F002A70D0E5
:103CB8007A684FF001001233724584F84802D7D869
:103CC8004FF4802290489DF8043008214FF00008F6
:103CD8004FF00009C4F884310023C4E95B020122D3
:103CE800C4F8743184F88031C4E95E2194F848122C
:103CF800C4E96489A9B3C4F89821002284F8813101
:103D080084F888313B78C4E96722002B38D0012237
:103D180000200121013B84F8A421C4E96C01082B8F
:103D280030D8DFE813F0BD00C200C700CC00D100D6
:103D3800D600DB00E100E8009DF804300121C4F85A
:103D48007421C4F884314FF4802384F880216E4AAA
:103D5800C4E95B2308230022C4E95E130023C4E9F5
:103D680064230123002284F88131002384F88831F8
:103D78000323C4F898313B78C4E96722002BC6D1E5
:103D880084F8A431614803F013FE034638B1FFBE3E
:103D9800FEE77A68123372453FF66AAF90E702A9E8
:103DA8005A48029303F062FF8246002876D1042223
:103DB80040F2FF710A90CDE9081294F83021002AE8
:103DC80000F0F3804FF006080AEBCA034FEACA096D
:103DD80004EB43035B7C072B07D8DFE803F0595C4F
:103DE8005653504D4A04072307930FFA8AF6D144D5
:103DF80006EBC60604EB490904EB4607750038468E
:103E080000F020FB99F81030042B00F3AA80022B55
:103E180000F3BD8000F0B98004EB0A03002283F8A8
:103E2800202114F81630002B78D0022B00F08A805D
:103E3800012B40F0B2807B78012B00F0B080002B82
:103E4800334B18BF002305A93048CDE9053803F0E6
:103E5800DBF9002840F0AC800AF1010A94F830310F
:103E68005FFA8AFA534540F2A0802A4B53F82A8019
:103E7800AAE706230793B8E705230793B5E70423C2
:103E88000793B2E703230793AFE702230793ACE74F
:103E980000230793A9E701230793A6E7FFBEFEE7E0
:103EA80003224023C4E96A236CE707226023C4E99C
:103EB8006A2367E70F228023C4E96A2362E71F2287
:103EC800A023C4E96A235DE73F22C023C4E96A232B
:103ED80058E77F22E023C4E96A2353E7FF224FF41F
:103EE8008073C4E96A234DE740F2FF124FF49073E0
:103EF800C4E96A2346E740F2FF324FF4A073C4E9ED
:103F08006A233FE7608F012400200240CC900124FF
:103F18000002B025D44D0108004000307B78062B04
:103F280037D0072B3DD0022B4AD0032B4AD0002B89
:103F38004CD0012B48D0042B4AD0052B254B18BF59
:103F4800002380E77B78042B25D0052B2BD08BB35F
:103F5800012B31D0022B31D0032B1F4B18BF00236C
:103F680071E70323043504EB0A0B4FF000092544DD
:103F78008BF82031284609F1010900F063FA9BF813
:103F8800203104354B45F5DC4BE70123EAE70223F2
:103F9800E8E7124B57E7124B55E7002353E7114B5D
:103FA80051E7114B4FE7114B4DE70DB0BDE8F08FCE
:103FB800FFBEFEE70E4B46E70E4B44E70E4B42E7CB
:103FC8000E4B40E70E4B3EE70E4B3CE70E4B3AE7F5
:103FD8000E4B38E70000B84F002090360800900CD0
:103FE8001000C0102000F0148000501D0001802136
:103FF8000004002A0008302E001060320040C03A49
:104008000080F03E00005247000021430000844B2E
:1040180038B5094C40F2FF724FF0011104F5B6753E
:10402800284603F0D1FD94F83021D4F864112846CD
:10403800BDE8384003F03CBB608F0124064B0F29D4
:10404800D3F8643198BF03EB41031B8800EE103AA4
:10405800BBEEC80A704700BF608F0124214B02687D
:104068009A4200D07047204A00232048D2F8D8103E
:1040780030B51F4C41F0200183B0C4F8D0010920AD
:1040880004F5E875C4E975034FF48060C2F8D810E8
:10409800D2F8D8204FF40061C4E9773094F8480288
:1040A80002F02002C4F8E4114FF400519842019242
:1040B8002846C4F8E811C4E97C33019B14BF0023E7
:1040C8004FF48073C4F8EC3103F0F6FF08B1FFBE7B
:1040D800FEE704F5B673C4F8B851C4F8083203B063
:1040E80030BD00BF0020024000440258400002409A
:1040F800608F0124014804F057BB00BF30910124B0
:1041080002682DE9F84F4B4B9A4201D0BDE8F88F71
:10411800494D95F84832002BF8D095F83031002BEE
:1041280077D0002405F10C0905F5A17605F59877F7
:10413800A04613E003F0010117F811BCA9F108002B
:1041480000F06AFABBF1010F25D895F83031013437
:1041580009F112090236A2B293422BD917F8012F9E
:10416800002AF4D0D5F864310021327833F81400ED
:10417800D5F8683103EB041323F8120033880133B0
:104188009BB233805FFA83FA3A789A42D2D88A4649
:10419800A6F80080D0E7CAF34001A9F1040000F0B6
:1041A8003BFABBF1020FCAF38001CED0484600F0BB
:1041B80033FACAE7002395F84802204909229842B1
:1041C800C5F8D8314FF48060C5F8D011C5F8D421AE
:1041D8004FF400614FF40052C5F8DC3108BF4FF4CA
:1041E8008073C5F8E821C5E9780100221448C5E9BB
:1041F8007B32C5F8F42103F05FFF08B1FFBEFEE78C
:1042080095F83021D5F864110E48BDE8F84F03F051
:104218004FBA0A4909224FF48060C5F8D831C5E978
:1042280074124FF400614FF40052C5E97730C5E9C4
:104238007912DAE700200240608F01244000024032
:1042480030910124CC900124704700BF10B592B082
:10425800ADF804100180C9B2149C0B29C460C0E9F0
:1042680001233FD090F801C0BCF10F0F3AD8022AC1
:104278003FD0032A02D0012A00D000220E92012B3F
:1042880002D0022B18BF0023022C0F932CD0032C32
:104298002AD0012C28D000230A29109327D85C4A59
:1042A80002EB812202610A2914D8DFE801F0A39504
:1042B80087796B5D4F4133250600564BD3F8E010E4
:1042C80041F48061C3F8E010D3F8E03003F4806370
:1042D8000C930C9B01230DA9104603FA0CF30D93C4
:1042E80004F0B4FD12B010BD0A291094D7D90022E9
:1042F800D8E711220E92C2E7464BD3F8E01041F4FA
:104308000071C3F8E010D3F8E03003F400730B93A6
:104318000B9BDFE73F4BD3F8E01041F48071C3F803
:10432800E010D3F8E03003F480730A930A9BD1E7D6
:10433800384BD3F8E01041F08001C3F8E010D3F80F
:10434800E03003F080030993099BC3E7314BD3F8AE
:10435800E01041F04001C3F8E010D3F8E03003F07A
:1043680040030893089BB5E72A4BD3F8E01041F0C7
:104378002001C3F8E010D3F8E03003F020030793DE
:10438800079BA7E7234BD3F8E01041F01001C3F8CF
:10439800E010D3F8E03003F010030693069B99E78A
:1043A8001C4BD3F8E01041F00801C3F8E010D3F833
:1043B800E03003F008030593059B8BE7154BD3F812
:1043C800E01041F00401C3F8E010D3F8E03003F046
:1043D80004030493049B7DE70E4BD3F8E01041F0EF
:1043E8000201C3F8E010D3F8E03003F002030393AE
:1043F800039B6FE7074BD3F8E01041F00101C3F8C6
:10440800E010D3F8E03003F001030293029B61E768
:10441800000002580044025808B501214378006999
:10442800994089B204F01AFF003818BF012008BD6E
:1044380001230A464178006903FA01F189B204F0C0
:1044480013BF00BF8378022B30B504468FB037D036
:10445800032B33D0012B31D000230A93E378012BAF
:104468002AD0022B28D000230B93002320460C933C
:1044780002F044FD0546204602F048FD23780990E5
:10448800082B13D8DFE803F01F3245586B7E91A440
:104498000500594BD3F8E02042F48072C3F8E020BD
:1044A800D3F8E03003F480730893089B09A92846E1
:1044B80004F0CCFC0FB030BD0B93D6E70A93CDE7E0
:1044C80011230A93CAE74C4B09A92846D3F8E020E0
:1044D80042F00102C3F8E020D3F8E03003F0010312
:1044E8000093009B04F0B2FC0FB030BD424B09A909
:1044F8002846D3F8E02042F00202C3F8E020D3F8BF
:10450800E03003F002030193019B04F09FFC0FB01D
:1045180030BD394B09A92846D3F8E02042F00402FF
:10452800C3F8E020D3F8E03003F004030293029BC1
:1045380004F08CFC0FB030BD2F4B09A92846D3F8E6
:10454800E02042F00802C3F8E020D3F8E03003F09E
:1045580008030393039B04F079FC0FB030BD264B8E
:1045680009A92846D3F8E02042F01002C3F8E02059
:10457800D3F8E03003F010030493049B04F066FCC6
:104588000FB030BD1C4B09A92846D3F8E02042F0F3
:104598002002C3F8E020D3F8E03003F020030593AD
:1045A800059B04F053FC0FB030BD134B09A92846F6
:1045B800D3F8E02042F04002C3F8E020D3F8E0301E
:1045C80003F040030693069B04F040FC0FB030BD97
:1045D800094B09A92846D3F8E02042F08002C3F825
:1045E800E020D3F8E03003F080030793079B04F042
:1045F8002DFC0FB030BD00BF0044025838B5054649
:1046080002F07CFC0446284602F080FC0146204665
:10461800BDE8384004F022BE70B506460D4602F0EB
:104628006DFC0446304602F071FC2A1E0146204605
:1046380018BF0122BDE8704004F016BE0023122204
:1046480070B586B0CDE9022304930368032B01D823
:1046580004230593061D841D304602F04FFC0546D1
:10466800304602F053FC034601A92846019304F0A2
:10467800EDFB204602F042FC034620461C4602F0B1
:1046880045FC01A903462046019304F0DFFB06B070
:1046980070BD00BF634A0368934210B58CB028D040
:1046A800614A934258D0614A934200F09480604A2C
:1046B800934201D00CB010BD5E4C5F48D4F8E03096
:1046C80043F00203C4F8E030D4F8E03003F002030A
:1046D8000A930A9BFFF7B2FFD4F8F43043F0800343
:1046E800C4F8F430D4F8F43003F080030B930B9B38
:1046F800E0E7504C5148D4F8E03043F00203C4F8E6
:10470800E030D4F8E03003F002030193019BFFF797
:1047180095FFD4F8E83000221F2043F40013114617
:10472800C4F8E830D4F8E83003F400130293029B8D
:10473800D4F8D83043F00103C4F8D830D4F8D830CE
:1047480003F001030393039B03F004FB1F200CB049
:10475800BDE8104003F03CBB364C3948D4F8E03093
:1047680043F08003C4F8E030D4F8E03003F080036D
:104778000493049BD4F8E03043F00203C4F8E0301B
:10478800D4F8E03003F002030593059BFFF756FFCA
:10479800D4F8E8300022212043F480031146C4F8FD
:1047A800E830D4F8E83003F480030693069BD4F885
:1047B800D83043F00103C4F8D830D4F8D83003F027
:1047C80001030793079B03F0C5FA21200CB0BDE84D
:1047D800104003F0FDBA1B48FFF730FF154B0022CD
:1047E8004820D3F8E840114644F40004C3F8E840F0
:1047F800D3F8E84004F400040894089CD3F8D8409F
:1048080044F00104C3F8D840D3F8D83003F00103CA
:104818000993099B03F09EFA48200CB0BDE81040AC
:1048280003F0D6BA0054004000580040005C004035
:10483800001C00580044025838940124B091012407
:1048480088920124609301242DE9F0431A4B87B024
:1048580000254FF010099E46EC46184BFF22E04613
:1048680067461A700EF118060EF13004CDE90055AE
:10487800CDE90255ADF80090BCE80F00CDE904552C
:10488800AEE80F009CE803000095ADF800908EE8B4
:104898000300B8E80F000FC69CE803000095ADF8C8
:1048A800009086E803000FCF0FC49CE8030084E85B
:1048B800030007B0BDE8F08314000024AC91012484
:1048C80010B5EFF3108472B6084B1A78120602D5A9
:1048D80004B962B610BD1B78D82205485BB202FB4A
:1048E8000300143003F060FFF2E700BFAC9101242D
:1048F800B0910124014805F04FBB00BF3C92012450
:10490800014805F049BB00BF14930124014805F094
:1049180043BB00BFEC9301242DE9F0430F68D82472
:104928003F4D85B007FB04F4032F05EB0403036038
:1049380040DCCB680E46012B3CD84DD04FF0D80850
:10494800B646DFF8FC9008FB0758BEE80F00C446DF
:10495800ACE80F00DEF800300DF1100ECCF8003096
:10496800D8F808C099E80F000EE90F000EEB87038E
:10497800BCF1010F53F8103CC8F88C3031D0BCF1B1
:10498800020F42D0BCF1000F35D0317C8C34D823D3
:10499800002201202C4403FB07534900C3E92602E7
:1049A800C3F894102046C3E92822C3E92A2205F057
:1049B800E5F818B1012005B0BDE8F08301462046AE
:1049C80005F0F6FA0028F5D10146204605F01AFB55
:1049D800003818BF0120EEE70B7C103B672BADD9E0
:1049E800E8E702F005F90F4B98420CBF0E4B0F4B4E
:1049F800C8F89030C9E702F0FBF80A4B98420CBFA0
:104A08000B4B0C4BC8F89030BFE702F0F1F8054BA0
:104A180098420CBF084B094BC8F89030B5E700BF67
:104A2800B0910124000E27072D0FB0303211D0208D
:104A38005F4390608A62E030200BA0101A09801052
:104A4800544D01082DE9F041D0F8008082B00D46A0
:104A580017461E4608F18C04204605F0A5FA2028C2
:104A6800FAD1D8F80C3073B96D002046089C33464B
:104A78003A46A9B2009405F0D7F8003818BF0120CB
:104A880002B0BDE8F081089B32463946204605F061
:104A98009FF9F2E7044B10221A7483F8E82083F890
:104AA800C02183F898227047B091012430B50023C3
:104AB80095B04FF48071062204460B930692139327
:104AC800CDE90C13CDE90E33CDE9113302F092F89C
:104AD80007282BD004F1100541F2883206A9284690
:104AE80006F0A2F828B10123184684F85C3015B006
:104AF80030BD0222022306A92846CDE90023102250
:104B08000123CDE9022300224FF48003CDE90423D9
:104B180005224FF0807306926A460F9341F288335C
:104B280006F0EEF90028DED115B030BD03230120D0
:104B380084F85C3015B030BD70B50023A4B04FF0D8
:104B480080724FF480750446ADF806300D93CDE9B8
:104B580010320122CDE90E53CDE91223CDE91433E9
:104B6800002943D0F02300F1100508AEADF8063057
:104B7800C02341F2883231462846089306F054F89B
:104B880028B10123184684F85C3024B070BD41F286
:104B980088320DF10601284606F0B0F803460028D1
:104BA800EFD105224FF480711E93284616924FF0DC
:104BB80080721B9321931F9202AA9FED1F7BCDE960
:104BC8001C13CDE922338DED027B9FED1D7B41F255
:104BD800883316A98DED047B9FED1B7B8DED067B3D
:104BE80006F08EF90028CCD124B070BD00F1100574
:104BF80008AE612341F2883231462846089306F010
:104C080013F80028BDD141F288320DF1060128467B
:104C180006F0F2F80028B4D1BDF80630204623F09B
:104C2800780343F04003ADF80630FFF73FFF002854
:104C38009ED0A6E7AFF3008000000000010000004E
:104C4800100000000100000000000000000040000B
:104C58002DE9F04F00234FF4807501264FF080783E
:104C680004462DED028BABB08DF8073013932193DA
:104C7800299314950E96CDF85C80CDE91533CDE9CE
:104C88001863CDE91A33CDE92253CDE92433CDE9B0
:104C9800273306231C9301F0ADFF072808D004F141
:104CA800100741F288321CA9384605F0BDFF40B113
:104CB8000123184684F85C302BB0BDEC028BBDE8AC
:104CC800F08F4FF0020A4FF0020B4FF0050941F246
:104CD800883308AA1CA93846CDF89480CDF870907E
:104CE8009FED2D8BCDE908AB4FF0000A4FF4800BF8
:104CF8008DED0A8BCDE90CAB06F002F90028D7D16F
:104D080041F2883238460EA905F08EFF0028CFD12F
:104D1800402341F288320DF1070138468DF80730FB
:104D280005F0ECFF0028C3D141F288330EA902AA8E
:104D38003846CDF83890CDF85C809FED197B8DED25
:104D4800048BCDE906AB8DED027B06F0D9F803465E
:104D58000028ADD1CDF870904FF00109CDF89480BE
:104D68004FF00008219308AA29931CA938462295D8
:104D7800CDE92333CDE9273341F288338DED0A8B12
:104D8800CDE90CABCDE9088906F0BAF8002893D034
:104D9800304684F85C608FE71000000001000000D6
:104DA80040000000400000002DE9F043624CA3B031
:104DB8000D46046001F01EFF072800F0A98028684E
:104DC80023466968AA6807C31E46AB8926F8043BD0
:104DD8003046257B677B05F009FFE0B9574B012D6D
:104DE8004FF00108E061236114BF4FF480134FF4C2
:104DF8000003C4E9058893FAA3F3B3FA83F34FF4E5
:104E08008079013BC4F82490C4E90B003046236242
:104E180005F080FE38B10122134684F85C2018465C
:104E280023B0BDE8F08366230B90139041F28832DB
:104E380006A90693CDE90C90CDE90E00CDE9110045
:104E4800304605F0F1FE0028E5D1992341F2883279
:104E580006A93046069305F0E7FE0028DBD10523B6
:104E68001C9019906A4614934FF08073219014A9EE
:104E78001D9341F288339FED2A7BCDE91A90CDE945
:104E88001F008DED007B9FED287B30468DED027B6A
:104E98009FED277B8DED047B06F032F80028BAD110
:104EA80029462046FFF748FE0028B4D12046FFF7E0
:104EB800CFFE03460028AED1002FB0D1189330465C
:104EC8000027002606AA14A9CDF86890CDE91F335B
:104ED800EB2314934FF440631B934FF40053179341
:104EE8004FF440431C93A0231693062319934FF0C5
:104EF800805321934FF04073CDE906671D9306F068
:104F080077F8034600288AD0434684F85C8086E711
:104F180001230322184684F85C2023B0BDE8F083FF
:104F28000000000001000000100000000100000067
:104F380000000000000040001095012400500052BD
:104F48002DE9F04F8FB0414B0024026800AF9A4220
:104F58007C63C7E90944C7E90B4403D03C37BD4625
:104F6800BDE8F08F3A4B40F609213A48EB46D3F8B2
:104F7800D42007F11C0607F1220A4FF0020942F477
:104F880080424FF00308C3F8D420D3F8D42002F4A9
:104F98008042BA60BA68D3F8E02042F04002C3F811
:104FA800E020D3F8E02002F04002FA60FA68D3F873
:104FB800E02042F02002C3F8E020D3F8E02002F01D
:104FC80020023A613A69D3F8E02042F01002C3F8AF
:104FD800E020D3F8E02002F010027A617A69D3F871
:104FE800E02042F00202C3F8E020D3F8E030F86194
:104FF80003F002033984BB61174B7B60BB697B6894
:1050080053F8040F7B6001F079FF7B680546186848
:1050180001F07CFF16F8013B786207F1240128466D
:10502800C7F830807B63C7E90A9403F00FFF564541
:10503800E5D100225C20114602F08CFE5C2002F0D3
:10504800C7FE3C37DD46BD46BDE8F08F0050005234
:10505800004402580A0A09096C950124114B026898
:105068009A4200D07047104A70B5D2F8D4300F4C2D
:1050780023F4804304F11806C2F8D43054F8040F1E
:1050880001F03CFF0546206801F040FF0146284634
:1050980004F01CF8B442F1D15C20BDE8704002F085
:1050A800A5BE00BF00500052004402586C95012470
:1050B800014806F029B800BF20950124084B1A1DA5
:1050C800981D03F1080110B49C1C9A6603F10A02AA
:1050D800C3E91834C3E91B015DF8044B5A677047EC
:1050E8001095012438B5036871B9026A00F12805E2
:1050F80000F5AC74012A0CBF002140218BBB1D4B6D
:105108005722C0F858310DE0426A00F1C00500F599
:10511800E874012A0CBF00214021EBB1164B5A223A
:10512800C0F8D03100232046C4E901214FF4805251
:105138004FF48061636262614FF48042C4E90331D5
:105148004FF48073C4E906234FF40033236202F05E
:10515800B3FF58B1FFBEFEE7084B5822C0F8D03164
:10516800E0E7074B5922C0F85831DBE7C5E920448E
:10517800A56338BD100002407000024028000240BC
:10518800580002402DE9F043821D05468BB0031DEF
:1051980005F10A010830CDE9052305F10C02AB69D8
:1051A800CDE907010992002B3DD0EB69B3FA83F8EA
:1051B8004FEA58180123022205AE0AAF4FF006093C
:1051C8000393CDE9012356F8044B2B7922789342B7
:1051D80016D02B68F3B1012B02D1F2B10A23049344
:1051E800204601F093FE03462046009301F086FE18
:1051F800694603F02BFEBE42E5D10BB0BDE8F08353
:10520800697963789942E4D1B8F1000FF3D02B683B
:10521800002BE0D1CDF81090E2E76378022B14BFA1
:105228000A230823DBE74FF00108C3E7534A036862
:10523800934230B505468BB055D02032934252D0B8
:105248004F4A934204D02032934201D00BB030BD74
:105258004C4C4D48D4F8E03043F00103C4F8E0303A
:10526800D4F8E03003F001030593059BD4F8E0304F
:1052780043F00803C4F8E030D4F8E03003F0080342
:105288000693069BD4F8E03043F04003C4F8E030BE
:10529800D4F8E03003F040030793079BD4F8F030CC
:1052A80043F40003C4F8F030D4F8F03003F40003FA
:1052B8000893089BFFF766FFD4F8D830296843F0B5
:1052C80001032F4A3048C4F8D830891AD4F8D830A6
:1052D80018BF012103F001030993099B0BB0BDE836
:1052E8003040FFF7FFBE274C2848D4F8E03043F0A1
:1052F8000103C4F8E030D4F8E03003F00103009370
:10530800009BD4F8E03043F01003C4F8E030D4F840
:10531800E03003F010030193019BD4F8E03043F030
:105328004003C4F8E030D4F8E03003F040030293BF
:10533800029BD4F8F03043F48003C4F8F030D4F87A
:10534800F03003F480030393039BFFF71BFFD4F8AB
:10535800D830296843F00103084A0C48C4F8D8300B
:10536800891AD4F8D83018BF012103F00103049337
:10537800049B0BB0BDE83040FFF7B4BE04580140B1
:10538800045C014000440258E497012488950124F4
:10539800014803F009BA00BFE0960124014803F070
:1053A80003BA00BF58970124014803F0FDB900BFB4
:1053B8003C990124014803F0F7B900BFB4990124CE
:1053C8001A4A0368934210B40BD02032934208D093
:1053D800174A934216D02032934213D05DF8044BFB
:1053E8007047144B0022D3F85442C3F85822002CBB
:1053F800F4D0D3F84802D3E9931223465DF8044B5E
:10540800520818470B4B0022D3F8B044C3F8B42411
:10541800002CE3D0D3F8AC24D3F8A814D3F8A40410
:10542800520823465DF8044B184700BF0458014052
:10543800045C014088950124184A0368934210B41B
:105448000BD02032934208D0154A934217D020320D
:10545800934214D05DF8044B7047124BD3E994245F
:105468005208C3F85822002CF4D0D3E992012346FD
:1054780001EB820100EB82005DF8044B1847094BF1
:10548800D3F8AC24D3F8B0445208C3F8B424002CA1
:10549800E0D0D3F8A814D3F8A404E8E704580140EE
:1054A800045C0140889501242DE9F04F0C684FF405
:1054B8001776754F87B004FB06F6012C07EB060A32
:1054C800C0F800A000F3A0800D468E464FF00008FB
:1054D800D44669A3D3E9002369A1D1E90001CDE944
:1054E800022306ABCAF8508203EB8403CDE904011A
:1054F80053F810BC53F8083CCAE992880193BEE8F7
:105508000F00ACE80F00BEE80F00ACE80F00019BED
:105518009EE80300CAF828B0CAF8C0308CE8030037
:105528002B69042B0CD8DFE803F0737D8791030007
:105538004FF41773554A03FB04739A64C3F8E020C9
:10554800AA692B6A002A43D0002B4FF4177308BFAF
:10555800022203FB047318BF0322DA6201221A63D2
:10556800EA696B6A002A40D1191E4FF4177318BFF5
:10557800012103FB0473C3E931126B69022B05D8BF
:10558800434A12F80380434A52F823904FF41773A2
:1055980006F128004246494603FB047400233844B8
:1055A80063646363E365C4F8DC30C4F8CC30C4F8E2
:1055B800F430C4E90F33C4E91533C4E93533C4E919
:1055C8003B33022307F042FE002849D0FFBEFEE726
:1055D800191E4FF4177318BF012103FB0473C3E9A5
:1055E8000B12EA696B6A002ABED0002B4FF41773BE
:1055F80008BF022203FB047318BF0322C3F8C420A8
:105608000122C3F8C820B8E7012007B0BDE8F08F31
:105618004FF417734FF4FA5203FB04739A64C3F8F8
:10562800E0208DE74FF417734FF47A5203FB0473AD
:105638009A64C3F8E02083E74FF417734FF4FA42F3
:1056480003FB04739A64C3F8E02079E74FF41773F7
:105658004BF6803203FB04739A64C3F8E0206FE7CB
:1056680006F1C000022342464946384407F0EEFDE1
:105678000028CAD0FFBEFEE704580140045C014080
:1056880024580140245C01408895012400770100DA
:10569800144E0108184E01080068704770B5046878
:1056A80082B015460E46C4F85032C4E99212069AE2
:1056B800C4F85422A269012A26D0626A012A9AB241
:1056C80011D0294604F1C000019207F07BFE236A3D
:1056D800019A012B10D0294604F1280007F072FE28
:1056E800002002B070BD04F1C000019207F0FCFE7A
:1056F800236A019A012BEED1314604F1280007F004
:10570800F3FE002002B070BD226A012A9AB211D0BD
:10571800294604F12800019207F054FE636A019AB1
:10572800012B10D0294604F1C00007F04BFE0020E1
:1057380002B070BD04F12800019207F0D5FE636A3B
:10574800019A012BEED1314604F1C00007F0CCFEDE
:10575800002002B070BD00BF03681B69042B05D888
:10576800044A02EB830393ED000A70479FED020A97
:10577800704700BF244E010800803B470368D3F8F8
:10578800580270471F4BC1680268F0B5D3F88C50B7
:1057980083B00369ADB24D1BA2B1AB4212D004462F
:1057A800866811D2F018E91ACDE9001000F0BEFFA2
:1057B8000023DDE90010D4E90062B047E368256101
:1057C800AB421BD003B0F0BDF018C91ACDE90001F7
:1057D80000F0ACFF0023DDE90001D4E90072B8470E
:1057E8003046294600F0A2FF002330466268294669
:1057F8002668B047E3682561AB42E3D10023236103
:1058080003B0F0BD000002402DE9F84F04460F46F2
:1058180090461E4600F13405284608F081FA2028F3
:10582800FAD14FF480630020C4F8D030C4F848316E
:105838004FF44033C4F8CC00C4F8E030C4F8583111
:105848004E4BC4F8DC00C4F8C03003F57A73C4F8D2
:10585800E400C4F838314023C4F8C800C4F8403123
:10586800E369C4F84401C4F85401C4F85C01C4E90C
:105878003500C4E95300072B0BD8DFE803F0615368
:105888005A373E454C045123C4F8C4305223C4F857
:105898003C3104F59C79484602F00EFC08B1FFBE85
:1058A800FEE7C4F8A890C4F87051EFF3108972B6F7
:1058B800DFF8D0B094F91C30DFF8CCA08BF80030BA
:1058C8000A9B2F4CCAF800300B9B23600EB1184678
:1058D800B0471FFA88F23946284608F00BF8B0BBE3
:1058E800B9F1000F00D162B6BDE8F88F3F23C4F8C4
:1058F800C4304023C4F83C31CBE74123C4F8C4305A
:105908004223C4F83C31C4E74723C4F8C4304823D1
:10591800C4F83C31BDE74F23C4F8C4305023C4F861
:105928003C31B6E72B23C4F8C4302C23C4F83C31EF
:10593800AFE72D23C4F8C4302E23C4F83C31A8E7C0
:105948002923C4F8C4302A23C4F83C31A1E7FF2333
:105958008BF800300023CAF8003023600A9B3BB163
:105968000B98012198470120B9F1000FBCD1BAE783
:105978000120B9F1000FB7D1B5E700BF8800024098
:1059880078A9012474A9012470A901242DE9F84FEC
:1059980004460F4690461E4600F13405284608F096
:1059A800BFF92028FAD14FF480630020C4F8D03022
:1059B800C4F848314FF44033C4F8CC00C4F8E030A0
:1059C800C4F858314E4BC4F8DC00C4F8C03003F5B5
:1059D8007A73C4F8E400C4F838314023C4F8C80026
:1059E800C4F84031E369C4F84401C4F85401C4F868
:1059F8005C01C4E93500C4E95300072B0BD8DFE884
:105A080003F061535A373E454C045123C4F8C4305F
:105A18005223C4F83C3104F1C009484602F04CFB5B
:105A280008B1FFBEFEE7C4F8AC90C4F8F850EFF335
:105A3800108972B6DFF8D0B094F91C30DFF8CCA02A
:105A48008BF800300A9B2F4CCAF800300B9B236060
:105A58000EB11846B0471FFA88F23946284607F0B3
:105A68009BFFB0BBB9F1000F00D162B6BDE8F88F5B
:105A78003F23C4F8C4304023C4F83C31CBE741236A
:105A8800C4F8C4304223C4F83C31C4E74723C4F8FF
:105A9800C4304823C4F83C31BDE74F23C4F8C430B0
:105AA8005023C4F83C31B6E72B23C4F8C4302C2368
:105AB800C4F83C31AFE72D23C4F8C4302E23C4F812
:105AC8003C31A8E72923C4F8C4302A23C4F83C3160
